:100A5C0002080000140C004000F9002400300019BA
:0A0A6C000012000200F80000001064
:0F0A7700AE0AAF0B7C007D0A12088CAE04AF05EF
:0B0A8600EF25E0240CF808E6F5A022A4
:100A3C00E4FDFCC3ED9FEC9E5015E4FBFA0BBB00F0
:0F0A4C00010ABA01F8BBF4F50DBD00010C80E4FE
:010A5B002278
:1009AC008F828E83D2B0C2B185080A85090BE50906
:1009BC002582FFE5083583FED3E50B9FEE6480F8B6
:1009CC00E50A6480985014120A777FF47E01120AAB
:1009DC003C050BE50B70D7050A80D3E50B24FFF51E
:0809EC0009E50A34FFF50822B9
:1009F4008F828E83C2B0D2B185080A85090BC3E504
:100A0400099582FFE5089583FEC3E50B9FEE64809C
:100A1400F8E50A6480984014120A777FF47E011284
:100A24000A3CE50B150B70D6150A80D2E50B2401A0
:080A3400F509E4350AF508227A
:0E0A9100C2B0C2B1120A7B7FF47E01020A3CA1
:100962008E208F21D3E5219509E5086480F8E520E2
:10097200648098400FE5219509FFE5209508FE1255
:1009820009AC801FC3E5219509E5086480F8E520DC
:10099200648098500EC3E5099521FFE5089520FE75
:0A09A2001209F4AF09AE08020A9131
:10091700C2B0C2B1E580B40105E4FFFE802AE580DC
:10092700B420067F057E00801FE580B402067F01A4
:100937007E008014E580B404067F027E008009E50E
:1009470080B408097F037E0012096280C7E580B47E
:0B09570010C27F047E0012096280B90C
:03000000020800F3
:0C080000787FE4F6D8FD758121020847DE
:10088C00C2D5EC30E709B2D5E4C39DFDE49CFCEE87
:10089C0030E715B2D5E4C39FFFE49EFE1208C2C335
:1008AC00E49DFDE49CFC80031208C230D507C3E430
:0608BC009FFFE49EFE22F6
:10080C00020917E493A3F8E493A34003F68001F2E2
:10081C0008DFF48029E493A3F85407240CC8C333ED
:10082C00C4540F4420C8834004F456800146F6DFBC
:10083C00E4800B0102040810204080900A5CE47EE6
:10084C00019360BCA3FF543F30E509541FFEE493B1
:10085C00A360010ECF54C025E060A840B8E493A378
:10086C00FAE493A3F8E493A3C8C582C8CAC583CAA3
:10087C00F0A3C8C582C8CAC583CADFE9DEE780BE5B
:010A7600007F
:1008C200BC000BBE0029EF8DF084FFADF022E4CC1A
:1008D200F875F008EF2FFFEE33FEEC33FCEE9DECE3
:1008E200984005FCEE9DFE0FD5F0E9E4CEFD22ED29
:1008F200F8F5F0EE8420D21CFEADF075F008EF2F73
:10090200FFED33FD4007985006D5F0F222C398FD63
:050912000FD5F0EA2200
:00000001FF
