:100BF6001408004000F90024003000190012000219
:060C060000F800000010E0
:090A8200120977D2007F057E0005
:100A8B00E4FDFCC3ED9FEE6480F8EC648098501598
:100A9B00E4FBFA0BBB00010AEB64644A70F50DBD75
:050AAB0000010C80DEDB
:010AB0002223
:10097700EF30E004D2008002C200EF30E104D20081
:100987008002C200EF30E204D2008002C200EF30E2
:10099700E304D2008002C200EF30E404D2008002F8
:1009A700C200EF30E504D2008002C200EF30E60457
:1009B700D2008002C200EF30E703D20022C2002239
:070C1F007E00120A8B7F30FA
:080C2600C200120A82C2002282
:050C54007F01020C26E7
:100BDB008F2FA905E52FB40105E924808008E52FA7
:0B0BEB00B40207E924C0FF120C262210
:100B5F00E4FF120977C2007FC8120C1F7F32120CFC
:100B6F001F7F6E120C1F7F38120C267F0C120C2663
:0A0B7F007F01120C267F06020C26EF
:080C4C00D200120A82C200224C
:060ADE008B1E8A1F892017
:100AE400E4F521F522AB1EAA1FA9208522828521C7
:100AF40083120AB1FF600D120C4C0522E52270E549
:040B0400052180E166
:010B080022CA
:050C59007F1C020C26C7
:050C5E007F18020C26C6
:100BB300EF30E004D2008002C200EF30E104D20043
:100BC3008002C200EF30E204D2008002C200EF30A4
:080BD300E303D20022C200225C
:070C0D007E00120A8B7F0339
:0B0C1400C200120BB3120A85C20022BE
:0A0C2E00E4FF120C147F01020C1405
:040A0B008F28A90582
:100A0F00E528B40112E92480FFF5297804A2E71341
:100A1F00D8FBF52AEF8016E528B4021FE92480F5EC
:100A2F00297804A2E713D8FBF52AE924C0540FF55F
:0B0A3F002BAF2A120C14AF2B120C146A
:010A4A002289
:100A4B00E4FF120BB37FC8120C0D7F32120C0D7F1B
:100A5B006E120C0D7F02120C147F02120C147F0805
:100A6B00120C14E4FF120C147F0C120C14E4FF1282
:070A7B000C147F06020C14AD
:020B0900AE0735
:100B0B00EE540FF9EE54F0FFD2007804A2E713D89D
:100B1B00FBFF120BB3120A85C200AF01120BB3D24B
:080B2B00007F05120A8BC200D5
:010B3300229F
:060B34008B238A248925B1
:100B3A00E4F526F527AB23AA24A92585278285264D
:100B4A0083120AB1FF600D120B090527E52770E52C
:040B5A00052680E10B
:010B5E002274
:0A0C38007F01120C147F0C020C1453
:0A0C42007F01120C147F08020C144D
:040B89007F647E0007
:100B8D00E4FDFCC3ED9FEE6480F8EC648098501595
:100B9D00E4FBFA0BBB00010AEB64644A70F50DBD72
:050BAD0000010C80DED8
:010BB2002220
:10080000D294D295D296D297C290D291D292D293CC
:10081000209409120B893094FD7F3722209509120C
:100820000B893095FD7F3822209609120B8930966E
:10083000FD7F3922209709120B893097FD7F2F22E7
:10084000D290C291D292D293209409120B89309403
:10085000FD7F3422209509120B893095FD7F3522CA
:10086000209609120B893096FD7F362220970912B7
:100870000B893097FD7F5822D290D291C292D293A9
:10088000209409120B893094FD7F312220950912A2
:100890000B893095FD7F3222209609120B89309604
:1008A000FD7F3322209709120B893097FD7F2D227F
:1008B000D290D291D292C293209409120B89309493
:1008C000FD7F4322209509120B893095FD7F302250
:1008D000209609120B893096FD7F3D222097091240
:0B08E0000B893097FD7F2B227F002248
:1009C700E4F52CF52D75A0C07F5F120800EFFD330D
:1009D70095E0FCED24D0F51DEC34FFF51CD3E51DA7
:1009E7009409E51C940050E2C3E51C940040DBD257
:1009F700B3C2B2C2B0C2B1E51D25E02408F808E6CB
:040A0700F5A080C610
:030000000208EB08
:0C08EB00787FE4F6D8FD75812F020932F9
:100AB100BB010CE58229F582E5833AF583E02250FA
:100AC10006E92582F8E622BBFE06E92582F8E22244
:0D0AD100E58229F582E5833AF583E493225E
:1008F7000209C7E493A3F8E493A34003F68001F247
:1009070008DFF48029E493A3F85407240CC8C33301
:10091700C4540F4420C8834004F456800146F6DFD0
:10092700E4800B0102040810204080900BF6E47E5F
:10093700019360BCA3FF543F30E509541FFEE493C5
:10094700A360010ECF54C025E060A840B8E493A38C
:10095700FAE493A3F8E493A3C8C582C8CAC583CAB7
:10096700F0A3C8C582C8CAC583CADFE9DEE780BE6F
:010C0C0000E7
:00000001FF
