:03000000020A47AA
:0C0A4700787FE4F6D8FD75810D0209C728
:060A2100D2A07F647E00FC
:100A2700E4FDFCC3ED9FEC9E5015E4FBFA0BBB0005
:0F0A3700010ABA01F8BBF4F50DBD00010C80E413
:010A4600228D
:1009C700E4F590C2A7C2A6C2A5C2A4C2A3C2A2C28E
:1009D700A1C2A03080031209473081031209873072
:0D09E700820312088B3083EB1209F480E6C6
:10094700E4F590120A21C2A0D2A1120A27C2A1D2AD
:10095700A2120A27C2A2D2A3120A27C2A3D2A412A2
:100967000A27C2A4D2A5120A27C2A5D2A6120A270D
:10097700C2A6D2A7120A27C2A7120A272080C4221A
:10098700E4F590120A21C2A0D2A7120A27C2A7D261
:10099700A6120A27C2A6D2A5120A27C2A5D2A41256
:1009A7000A27C2A4D2A3120A27C2A3D2A2120A27D5
:1009B700C2A2D2A1120A27C2A1120A272081C422E9
:10088B00E4F590D2A7D2A2120A23C2A7C2A2120ADF
:10089B0027D2A6D2A3D2A7D2A2120A27C2A6C2A33C
:1008AB00C2A7C2A2120A27D2A6D2A3D2A7D2A2D281
:1008BB00A1D2A0120A27C2A6C2A3C2A7C2A2C2A1DA
:1008CB00C2A0120A27D2A0D2A7D2A1D2A2D2A3D25F
:1008DB00A6D2A5D2A4120A27C2A0C2A7C2A1C2A2A5
:0F08EB00C2A3C2A6C2A5C2A4120A2720829522C8
:1009F4001208FA7C007D031208008C0C8D0DE50DA5
:100A0400450C70051209478010E50D6401450C7012
:0C0A140005120987800312088B2083D490
:010A200022B3
:10080000C2D5EC30E709B2D5E4C39DFDE49CFCEE13
:1008100030E715B2D5E4C39FFFE49EFE120836C34D
:10082000E49DFDE49CFC800312083630D507C3E448
:060830009FFFE49EFE2282
:1008FA00AC08AD09AE0AAF0B7810EC4D4E4F700440
:10090A007CA57DA5C3EC13FCED13FDEE13FEEF13DE
:10091A00FF5010EC64CCFCED644CFDEE644EFEEF2F
:10092A0064CEFFD8DF8C088D098E0A8F0BEE547FB8
:0D093A00FE228E088F0974A5F50AF50B2228
:10083600BC000BBE0029EF8DF084FFADF022E4CCA6
:10084600F875F008EF2FFFEE33FEEC33FCEE9DEC6F
:10085600984005FCEE9DFE0FD5F0E9E4CEFD22EDB5
:10086600F8F5F0EE8420D21CFEADF075F008EF2FFF
:10087600FFED33FD4007985006D5F0F222C398FDF0
:050886000FD5F0EA228D
:00000001FF
