:10107C002564003000310032004572726F723A20E4
:10108C004469766973696F6E2062792030003D0087
:06109C000000000000004E
:0A102B00C2918FA0D2927F017E00D7
:10103500E4FDFCC3ED9FEC9E5015E4FBFA0BBB00F1
:0F104500010ABA01F8BB2CF50DBD00010C80E4C7
:011054002279
:0A112B00C29012102BC29202103580
:0A113500D29012102BC29202103566
:1010C1007F3812112B7F0E12112B7F0112112B7FF2
:0B10D1000A7E001210357F0602112B72
:0C1113007F0112112B7F0A7E00021035B4
:060FFF007B007A0079225C
:101005008B3F8A408941121113AB3FAA40A9411277
:101015000C52FF601012113574012541F541E4357C
:0610250040F54080E422CA
:1010A2007542FF75431075447C8E458F467B007AEE
:0F10B20000792F12085C7B007A00792F0210055D
:100D7D0078227C007D007BFF7A10799C7E007F03BA
:100D8D00120C2C78257C007D007BFF7A10799F7EDC
:100D9D00007F03120C2CE4F528F529F52A1210C159
:100DAD0030B0277B007A0079221210DCC3EF940259
:100DBD00EE940050157532FF75331075347F7B003E
:100DCD007A007922120FA7120FFF30B1277B007A1C
:100DDD000079221210DCC3EF9402EE9400501575C9
:100DED0032FF7533107534817B007A007922120F32
:100DFD00A7120FFF20930920940620950330962209
:100E0D003093047F2B80103094047F2D8009309512
:100E1D00047F2A80027F2F8F287B007A0079281289
:100E2D00100530B22D7B007A0079251210DCC3EF4E
:100E3D009402EE9400501B7532FF75331075348398
:100E4D007B007A007925120FA77B007A0079251295
:0F0E5D001005209703020DADE5287003020DADBF
:100E6C007B007A007922120EF98E2B8F2C7B007A64
:100E7C00007925120EF98E2D8F2EE52824D66029A7
:100E8C0024FD601624FE602E2404704FE52C252EC4
:100E9C00F52AE52B352DF5298041C3E52C952EF54A
:100EAC002AE52B952DF5298032AC2DAD2EAE2BAF2E
:100EBC002C120C6B8011E52E452D6011AC2DAD2E36
:100ECC00AE2BAF2C120C7D8E298F2A800E12111393
:100EDC007BFF7A10798512100580FE7BFF7A1079E2
:0B0EEC009A121005AF2AAE291210A2C6
:020EF70080FE7B
:0300000002111FCB
:0C111F00787FE4F6D8FD758152020D7D4A
:100B5C00E709F608DFFA8046E709F208DFFA803E7B
:100B6C0088828C83E709F0A3DFFA8032E309F60868
:100B7C00DFFA8078E309F208DFFA807088828C83D0
:100B8C00E309F0A3DFFA806489828A83E0A3F60884
:100B9C00DFFA805889828A83E0A3F208DFFA804C5E
:100BAC0080D280FA80C680D4806980F28033801035
:100BBC0080A680EA809A80A880DA80E280CA80339E
:100BCC0089828A83ECFAE493A3C8C582C8CCC58316
:100BDC00CCF0A3C8C582C8CCC583CCDFE9DEE780E6
:100BEC000D89828A83E493A3F608DFF9ECFAA9F065
:100BFC00EDFB2289828A83ECFAE0A3C8C582C8CCBB
:100C0C00C583CCF0A3C8C582C8CCC583CCDFEADED3
:100C1C00E880DB89828A83E493A3F208DFF980CC35
:100C2C0088F0EF60010E4E60C388F0ED2402B4042E
:100C3C000050B9F582EB2402B4040050AF232345D5
:060C4C008223900BAC7343
:100C5200BB010689828A83E0225002E722BBFE02A0
:090C6200E32289828A83E49322D3
:100C6B00EF8DF0A4A8F0CF8CF0A428CE8DF0A42E9D
:020C7B00FE2257
:100C7D00C2D5EC30E709B2D5E4C39DFDE49CFCEE92
:100C8D0030E715B2D5E4C39FFFE49EFE120CF2C30C
:100C9D00E49DFDE49CFC8003120CF230D507C3E407
:060CAD009FFFE49EFE2201
:10080000E54E2442F8E6054E22783F300702784252
:10081000E475F001120D47020C522000EB7F2ED23E
:10082000008018EF540F2490D43440D4FF30040BD0
:10083000EF24BFB41A0050032461FFE54F60021596
:100840004F0552E5527002055130070D783FE475AF
:10085000F001120D47EF020CE00210557403D207AD
:100860008003E4C207F54E8B3F8A408941E4F54F8F
:10087000F551F552E54F60077F2012083B80F57572
:1008800050FFC201C200C202C203C205C206C208B2
:10089000120809FF700D3007057F0012084CAF5297
:1008A000AE5122B4255FC2D5C204120809FF24D07C
:1008B000B40A00501A75F00A784F30D50508B6FF13
:1008C0000106C6A426F620D5047002D20380D924DE
:1008D000CFB41A00EF5004C2E5D204020A4CD20190
:1008E00080C6D20080C0D20280BCD2D580BAD205E8
:1008F00080B47F2012083B2002077401B54F0040EE
:10090000F1120800FF12083B020874D208D20680D8
:1009100095120800FB120800FA120800F94A4B7001
:1009200006791D7A0B7BFF20022EE54F602A7E00A0
:100930008E82758300120CB360060EEE655070F067
:10094000C2D5EBC0E0EAC0E0E9C0E0EE120A93D005
:10095000E0F9D0E0FAD0E0FB120C52FF60AAEBC045
:10096000E0EAC0E0E9C0E012083BD0E02401F9D0A1
:10097000E03400FAD0E0FBE5500460DCD550D980CB
:10098000877BFF7A0A798FD202809C791080027966
:1009900008C206C2088008D2D5790A8004790AC242
:1009A000D5E550047002F550E4FAFDFEFF12080090
:1009B000FC7B08200113120800FD7B1030000A1296
:1009C0000800FE120800FF7B20EC3382D592D55040
:1009D00013C3E43000069FFFE49EFEE42001039D64
:1009E000FDE49CFCE4CBF8C201EC700CCFCECDCC86
:1009F000E824F8F870F38017C3EF33FFEE33FEED11
:100A000033FDEC33FCEB33FB994002FB0FD8E9EBF1
:100A1000300105F8D0E0C448B201C0E00AEC4D4E08
:100A20004F78207B0070C2EAB5500040BCC0E01295
:100A30000A95D0F0D0E0200104C4C0E0C4B201C0E7
:100A4000F0120824D0F0D5F0EB020874120D57090B
:100A50001153098B5808E24C08DE42098F4F099761
:0F0A60004409974908F743099D550981460981C3
:100A6F00450981470B3D5008E62D08EA2E090D2B4D
:100A7F0008EE23090B200B262A08A64800000905BB
:100A8F003F3F3F00790AA2D5200314300509B91062
:100A9F00020404B9080104A2D52006025001042063
:100AAF0002689202B54F005034C0E07F2030031926
:100ABF007F30A20272067205500F120AECC202C2F8
:100ACF0006C205C2087F30800F300503E9C0E0126F
:100ADF00083B300503D0E0F9D0E0B54FCC30051717
:100AEF007F30B9100C12083B7F583004077F788095
:100AFF0003B9080312083B3002057F2D02083B7F24
:100B0F00202008F87F2B2006F322920280CF286E38
:100B1F00756C6C2900D2011208003001F8C20178FF
:100B2F004F30D50108F60208A62D50434958120838
:100B3F00002403B405004001E4900B389312082CF5
:0D0B4F00743A12082CD203754F0402098B72
:100FA7008B2F8A3089318B358A368937AB2F0531BC
:100FB700E531AA307002053014F9120C5270ED7445
:100FC700FF2531F53174FF3530F530AB320534E5A7
:100FD70034AA337002053314F9120C52FFAB2F05F4
:100FE70031E531AA307002053014F9EF120CE070C8
:080FF700DAAB35AA36A9372256
:1010DC00E4FFFE120C52600C0FEF70010E09E97068
:0510EC00F20A80EF2272
:100EF9008B2F8A308931AB2FAA30A931120C52FFBE
:100F09001210F1500D74012531F531E43530F53009
:100F190080E4D200AB2FAA30A931120C52FF642B06
:100F29006004EFB42D1BAB2F0531E531AA307002F7
:100F3900053014F9120C52642D6003D38001C39259
:100F490000E4F532F533AB2FAA30A931120C52FF68
:100F59001211045036AB2FAA30A931120C52FF33AB
:100F690095E0FEEF24D0FBEE34FFFAAE32AF337CCE
:100F7900007D0A120C6BEF2BF533EE3AF532740152
:100F89002531F531E43530F53080BB300006AE321D
:0E0F9900AF338009C3E49533FFE49532FE22A6
:100CB300BB010CE58229F582E5833AF583E02250F6
:100CC30006E92582F8E622BBFE06E92582F8E22240
:0D0CD300E58229F582E5833AF583E493225A
:100CE000BB010689828A83F0225002F722BBFE01F3
:020CF000F322ED
:100CF200BC000BBE0029EF8DF084FFADF022E4CCE6
:100D0200F875F008EF2FFFEE33FEEC33FCEE9DECAE
:100D1200984005FCEE9DFE0FD5F0E9E4CEFD22EDF4
:100D2200F8F5F0EE8420D21CFEADF075F008EF2F3E
:100D3200FFED33FD4007985006D5F0F222C398FD2F
:050D42000FD5F0EA22CC
:100D4700FAE6FB0808E6F925F0F618E6CA3AF622AD
:100D5700D083D082F8E4937012740193700DA3A32B
:100D670093F8740193F5828883E47374029368603F
:060D7700EFA3A3A380DF3F
:10105500EFB40A07740D121060740A309811A8993C
:10106500B8130CC2983098FDA899C298B811F630FB
:0710750099FDC299F59922D3
:0F110400EFC394304007EF943A50028001C322AA
:1010F100EFC394094005EF940E4003BF2003D38052
:0311010001C32205
:00000001FF
