:0C0AE0000A1DC0F9A4B0999282F8809021
:0C0AED00D3EF6480948040031F80F5224A
:1009BC008F1C8E1B8D1A8C19E47BE87A03F9F812C4
:1009CC00083C741D2FF8E6F5A0D2907F1E120AED9C
:1009DC00C290E47B64FAF9F8AF1CAE1BAD1AAC19EB
:1009EC0012083CE47B0AFAF9F812083C741D2BF847
:1009FC00E6F5A0D2917F1E120AEDC291E47B0AFAB1
:100A0C00F9F8AF1CAE1BAD1AAC1912083CE47B0A0A
:100A1C00FAF9F812083C741D2BF8E6F5A0D2927F77
:100A2C001E120AEDC292E47B0AFAF9F8AF1CAE1B57
:100A3C00AD1AAC1912083C741D2BF8E6F5A0D29334
:080A4C007F1E120AEDC2932285
:1008FF00E4750B0F750A27F509F508850B0F850AA7
:10090F000E85090D85080CF513F512F511F51085F7
:10091F001317851216851115851014F518C2B0C25C
:10092F00B1C2B230B043751801E51860F630B203AA
:10093F00E4F518780874FF1208E18F0B8E0A8D0901
:10094F008C081209BCAF13AE12AD11AC10AB0BAAD1
:10095F000AA909A808C31208CE70CE850F0B850E01
:10096F000A850D09850C0880C030B1B7751801E5EF
:10097F001860B030B203E4F51878101208DF8F1347
:10098F008E128D118C101209BCAF0BAE0AAD09ACD3
:10099F0008AB13AA12A911A810C31208CE70D085E4
:0D09AF00171385161285151185141080C2CE
:03000000020A549D
:0C0A5400787FE4F6D8FD758126020A9B2D
:1008000075F008758200EF2FFFEE33FECD33CDCCAF
:1008100033CCC58233C5829BED9AEC99E582984032
:100820000CF582EE9BFEED9AFDEC99FC0FD5F0D60F
:10083000E4CEFBE4CDFAE4CCF9A88222B800C1B939
:100840000059BA002DEC8BF084CFCECDFCE5F0CB77
:10085000F97818EF2FFFEE33FEED33FDEC33FCEBB0
:1008600033FB10D703994004EB99FB0FD8E5E4F96B
:10087000FA227818EF2FFFEE33FEED33FDEC33FC58
:10088000C933C910D7059BE99A4007EC9BFCE99A4C
:10089000F90FD8E0E4C9FAE4CCFB2275F010EF2F91
:1008A000FFEE33FEED33FDCC33CCC833C810D70791
:1008B0009BEC9AE899400AED9BFDEC9AFCE899F8CC
:0E08C0000FD5F0DAE4CDFBE4CCFAE4C8F9225F
:1008CE00EB9FF5F0EA9E42F0E99D42F0E89C45F080
:0108DE0022F7
:1008DF007401FF3395E0FEFDFC080808E62FFFF6D4
:1008EF0018E63EFEF618E63DFDF618E63CFCF6224D
:100A60000208FFE493A3F8E493A34003F68001F2A5
:100A700008DFF48029E493A3F85407240CC8C33397
:100A8000C4540F4420C8834004F456800146F6DF66
:100A9000E4800B0102040810204080900AE0E47E0C
:100AA000019360BCA3FF543F30E509541FFEE4935B
:100AB000A360010ECF54C025E060A840B8E493A322
:100AC000FAE493A3F8E493A3C8C582C8CAC583CA4D
:100AD000F0A3C8C582C8CAC583CADFE9DEE780BE05
:010AEC000009
:00000001FF
