:1009CB001412004000F9002400300019001200023C
:0609DB0000F8000000100E
:0909A20025E02412F808E6F5A096
:1009AB00E4FDFCD3ED9FEC9E5015E4FBFA0BBB0072
:0F09BB00010AEB64064A70F50DBD00010C80E4E3
:0109CA00220A
:10080000750A00750B09750C00750D09750E0075DC
:100810000F0902090275A0FFD293C291C292C29041
:10082000E50B25E02412F808E6F5A07F0A7E001209
:1008300009AB75A0FFD292C290C293C291E50D128E
:1008400009A275A0FFD291C292C293C290E50F1285
:1008500009A275A0FFD290C292C293C291E5111273
:1008600009A2E50B450A7025E50D450C701FE50F43
:10087000450E7019E51145107013F50A750B09F551
:100880000C750D09F50E750F09F5108078E5094511
:10089000087078F508750909D3E50B9400E50A940A
:1008A00000400BE50B150B7056150A020815750A6A
:1008B00000750B09D3E50D9400E50C9400400BE5A1
:1008C0000D150D7002150C020815750C00750D093B
:1008D000D3E50F9400E50E9400400BE50F150F7063
:1008E00002150E020815750E00750F09D3E5119457
:1008F00000E5109400400BE511151170021510026F
:100900000815751000751109020815E5091509701B
:06091000021508020815A3
:03000000020916DC
:0C091600787FE4F6D8FD75812502095DAC
:10092200020800E493A3F8E493A34003F68001F2E3
:1009320008DFF48029E493A3F85407240CC8C333D6
:10094200C4540F4420C8834004F456800146F6DFA5
:10095200E4800B01020408102040809009CBE47E61
:10096200019360BCA3FF543F30E509541FFEE4939A
:10097200A360010ECF54C025E060A840B8E493A361
:10098200FAE493A3F8E493A3C8C582C8CAC583CA8C
:10099200F0A3C8C582C8CAC583CADFE9DEE780BE44
:0109E1000015
:00000001FF
