:100986001412004000F90024003000190012000281
:0609960000F80000001053
:0D09590025E02412F808E6F5A07F647E007A
:10096600E4FDFCD3ED9FEC9E5015E4FBFA0BBB00B7
:0F097600010AEB64064A70F50DBD00010C80E428
:01098500224F
:10080000E4F508F509F510F511F50EF50FF50CF501
:100810000DF50AF50B0509E50970020508640245A6
:1008200008700DF508750901050BE50B7002050A46
:1008300075A0FFE50B640A450A700CF50AF50B0577
:100840000DE50D7002050CD293C291C292C290E5E3
:100850000B12095975A0FFE50D640A450C700CF5E3
:100860000CF50D050FE50F7002050ED292C290C275
:1008700093C291E50D12095975A0FFE50F640A4571
:100880000E700CF50EF50F0511E51170020510D272
:1008900091C292C293C290E50F12095975A0FFE56B
:1008A00011640A45107010F50AF50BF50CF50DF5FD
:1008B0000EF50FF510F511D290C292C293C291E5D8
:0D08C0001112095912096675A0FF020815F2
:030000000208CD26
:0C08CD00787FE4F6D8FD7581250209143F
:1008D900020800E493A3F8E493A34003F68001F22D
:1008E90008DFF48029E493A3F85407240CC8C33320
:1008F900C4540F4420C8834004F456800146F6DFEF
:10090900E4800B0102040810204080900986E47EEF
:10091900019360BCA3FF543F30E509541FFEE493E3
:10092900A360010ECF54C025E060A840B8E493A3AA
:10093900FAE493A3F8E493A3C8C582C8CAC583CAD5
:10094900F0A3C8C582C8CAC583CADFE9DEE780BE8D
:01099C00005A
:00000001FF
